:100000000C942E000C944B000C944B000C94550552
:100010000C944B000C944B000C944B000C944B0034
:100020000C944B000C944B000C944B000C944B0024
:100030000C944B000C944B000C944B000C944B0014
:100040000C944B000C944B000C944B000C944B0004
:100050000C944B000C944B000C944B0011241FBECD
:10006000CFEFD4E0DEBFCDBF12E0A0E0B1E0EEE61E
:10007000FEE002C005900D92A231B107D9F722E04F
:10008000A2E1B2E001C01D92AA31B207E1F70E94DD
:1000900032050C9435070C94000081118FEF90E02D
:1000A00006C0E92FF0E0E451FF4F80839F5F943159
:1000B000C0F3089580E00E944D00E7EEF0E08081FB
:1000C0008F60808387EB8093E50087E08093E60074
:1000D00080EC8093E4008081806E80830895663098
:1000E000A8F596ED980F913568F4813608F08F7D6C
:1000F0008A52E82FF0E0EE0FFF1FE45FFE4F4081D1
:10010000518102C040E050E0762F717060FF02C064
:100110003FE001C030EF6695E62FF0E0E451FF4F7D
:1001200020E012C0842F8F70529542954F70452762
:100130005F704527772311F08295807F908193230C
:10014000892B808335962F5F243060F30895CF93F9
:10015000DF93C0E0D0E043C180E00E944D0060E04A
:1001600080E00E946F0061E080E00E946F0062E02A
:1001700080E00E946F0063E080E00E946F0064E016
:1001800087E50E946F002FEF84E39CE021508040C0
:100190009040E1F700C0000060E080E00E946F0046
:1001A00061E080E00E946F0062E080E00E946F00EA
:1001B00063E087E50E946F0064E085E40E946F00C1
:1001C0002FEF84E39CE0215080409040E1F700C095
:1001D000000060E080E00E946F0061E080E00E942B
:1001E0006F0062E087E50E946F0063E085E40E9493
:1001F0006F0064E08CE40E946F002FEF84E39CE0CA
:10020000215080409040E1F700C0000060E080E0B5
:100210000E946F0061E087E50E946F0062E085E464
:100220000E946F0063E08CE40E946F0064E083E44E
:100230000E946F002FEF84E39CE0215080409040AB
:10024000E1F700C0000060E087E50E946F0061E018
:1002500085E40E946F0062E08CE40E946F0063E01E
:1002600083E40E946F0064E08FE40E946F002FEF30
:1002700084E39CE0215080409040E1F700C0000002
:1002800060E085E40E946F0061E08CE40E946F00F2
:1002900062E083E40E946F0063E08FE40E946F00DD
:1002A00064E08DE40E946F002FEF84E39CE0215016
:1002B00080409040E1F700C0000060E08CE40E94C4
:1002C0006F0061E083E40E946F0062E08FE40E94AF
:1002D0006F0063E08DE40E946F0064E085E40E949B
:1002E0006F002FEF84E39CE0215080409040E1F7C5
:1002F00000C0000060E083E40E946F0061E08FE4D2
:100300000E946F0062E08DE40E946F0063E085E46C
:100310000E946F0064E080E00E946F002FEF84E392
:100320009CE0215080409040E1F700C0000060E078
:100330008FE40E946F0061E08DE40E946F0062E034
:1003400085E40E946F0063E080E00E946F0064E03B
:1003500080E00E946F002FEF84E39CE021508040FA
:100360009040E1F700C0000060E08DE40E946F0063
:1003700061E085E40E946F0062E080E00E946F000F
:1003800063E080E00E946F0064E080E00E946F0004
:100390002FEF84E39CE0215080409040E1F700C0C3
:1003A000000060E085E40E946F0061E080E00E9450
:1003B0006F0062E080E00E946F0063E080E00E94D6
:1003C0006F0064E080E00E946F002FEF84E39CE008
:1003D000215080409040E1F700C000002196C130DC
:1003E000D10509F0B9CEDF91CF910895EF92FF9238
:1003F0000F931F93CF93DF93CDB7DEB7AE970FB6B2
:10040000F894DEBF0FBECDBF78948EE2E9E7F1E04D
:10041000DE01119601900D928A95E1F781E08093BB
:1004200078015CC080E00E944D00E1E0F0E0EC0F5C
:10043000FD1FE00FF11F60E080810E946F007801D6
:100440002FEFE21AF20AE1E0F0E0EC0FFD1FEE0DF3
:10045000FF1D61E080810E946F00F801329681E00B
:1004600090E08C0F9D1FE80FF91F62E080810E94D1
:100470006F00F801339681E090E08C0F9D1FE80F2C
:10048000F91F63E080810E946F00F801349681E0DB
:1004900090E08C0F9D1FE80FF91F64E080810E949F
:1004A0006F000B5F1F4FE1E0F0E0EC0FFD1FE00F6E
:1004B000F11F65E080810E946F009FEF24E38CE0D4
:1004C000915020408040E1F700C00000870102C049
:1004D00000E010E00D32110509F0A4CF8091780101
:1004E0008111F6CFF894AE960FB6F894DEBF0FBE2A
:1004F000CDBFDF91CF911F910F91FF90EF900895A5
:10050000EF92FF920F931F93CF93DF93CDB7DEB798
:10051000C456D1090FB6F894DEBF0FBECDBF789494
:100520008AE5EEEAF1E0DE01119601900D928A95DE
:10053000E1F7FE01E55AFF4F8AE0DF011D928A953F
:10054000E9F781E0809378015CC080E00E944D0073
:10055000E1E0F0E0EC0FFD1FE00FF11F60E08081B3
:100560000E946F007801BFEFEB1AFB0AE1E0F0E0B8
:10057000EC0FFD1FEE0DFF1D61E080810E946F00FA
:10058000F801329681E090E08C0F9D1FE80FF91F73
:1005900062E080810E946F00F8013396A1E0B0E034
:1005A000AC0FBD1FEA0FFB1F63E080810E946F004C
:1005B000F801349681E090E08C0F9D1FE80FF91F41
:1005C00064E080810E946F000B5F1F4FE1E0F0E06C
:1005D000EC0FFD1FE00FF11F65E080810E946F00AE
:1005E0009FEFA4E3BCE09150A040B040E1F700C011
:1005F0000000870102C000E010E00335110509F09A
:10060000A4CF809178018111F6CFF894CC59DF4FB7
:100610000FB6F894DEBF0FBECDBFDF91CF911F9113
:100620000F91FF90EF900895CF93DF9381E0809337
:10063000780186C08BB182608BB92FEF49E688E1E3
:10064000215040408040E1F700C000008BB18D7F19
:100650008BB99FEF29E648E1915020404040E1F7F7
:1006600000C0000080E00E944D0060E080E00E9439
:100670006F0061E080E00E946F00209112023091D3
:100680001302220F331F220F331F220F331FC90102
:1006900064E670E00E94EC05462FEAE0F0E0BF015E
:1006A0000E94EC05D62FC901BF010E94EC05C82F9E
:1006B00062E080E3840F0E946F0063E080E38D0FAF
:1006C0000E946F0064E080E38C0F0E946F008FEF48
:1006D00094E32CE0815090402040E1F700C00000FE
:1006E000E0911402F0911502808190E020911202B5
:1006F000309113028217930719F584B1816084B990
:1007000020E030E01AC085B1816085B94FEF80E705
:1007100092E0415080409040E1F700C0000085B178
:100720008E7F85B94FEF80E792E041508040904046
:10073000E1F700C000002F5F3F4F2730310519F768
:1007400080917801811176CFDF91CF9108950F9339
:100750001F93CF93DF938091140290911502FC01B7
:10076000C281D3810E94AC06D0931502C0931402BB
:100770000A811B81CE010E94AC06109315020093E2
:100780001402C8010E94AC0620E030E015C085B11B
:10079000826085B98FE697E10197F1F700C000000C
:1007A00095B182E0892785B9EFE2F5E73197F1F756
:1007B00000C000002F5F3F4F809112029091130202
:1007C0002817390721F71092130210921202DF91B5
:1007D000CF911F910F910895ECE6F0E08081806148
:1007E000808380818064808380818068808380ECC6
:1007F0008DBB089580E00E944D0060E085E50E9479
:100800006F0061E080E50E946F002FEF81EE94E0C1
:10081000215080409040E1F700C00000089580E042
:100820000E944D0060E084E40E946F0061E08FE46C
:100830000E946F0062E087E50E946F0063E08EE433
:100840000E946F002FEF81EE94E021508040904095
:10085000E1F700C00000089580E00E944D0060E0D4
:1008600082E50E946F0061E089E40E946F0062E00F
:1008700087E40E946F0063E088E40E946F0064E0F8
:1008800084E50E946F002FEF81EE94E021508040BC
:100890009040E1F700C00000089580E00E944D0004
:1008A00060E08CE40E946F0061E085E40E946F00CC
:1008B00062E086E40E946F0063E084E50E946F00BE
:1008C0002FEF81EE94E0215080409040E1F700C08E
:1008D0000000089580E00E944D0060E083E40E94E3
:1008E0006F0061E085E40E946F0062E08EE40E9488
:1008F0006F0063E084E50E946F0064E085E40E947D
:100900006F0065E082E50E946F002FEF81EE94E0BA
:10091000215080409040E1F700C0000008950F93FF
:100920001F93CF93DF9386E090E00E941406EC01C2
:1009300087E0888381E3898386E090E00E94140643
:100940008C018BE0D8018C9382E311968C9386E026
:1009500090E00E941406FC018FE0808383E3818392
:100960001B830A83FD83EC83D8011396FC93EE93DB
:1009700012971596DC93CE931497D383C283158375
:100980000483D0931502C0931402C1E064C080E0D8
:100990000E944D0060E08CE40E946F0061E08FE4F3
:1009A0000E946F0062E083E40E946F0063E08BE4CA
:1009B0000E946F00E0911402F091150264E08181C1
:1009C0000E946F00BFEFE4E3FCE0B150E040F04074
:1009D000E1F700C000001C990AC080910B0184FD62
:1009E00003C005C00E946A041C9BFCCFC0E0629952
:1009F00014C080910A0182FD03C00FC00E944D0403
:100A0000629BFCCFE0911402F091150284819581E4
:100A1000909315028093140215C0639913C08091BE
:100A2000090183FD03C00EC00E942C04639BFCCF10
:100A3000E0911402F0911502828193819093150246
:100A40008093140283B180930B018CB180930A01CF
:100A50008CB180930901C1119ACFDF91CF911F9181
:100A60000F91089584B1826084B984B18F7284B982
:100A70008DB1837F8DB985B1806D85B98EB18C6064
:100A80008EB90E945A000E94EC037894F8940E9458
:100A9000A7000E94F6010E9480020E948F047894B1
:100AA0000E9414030E94A703F1CF1F920F920FB66A
:100AB0000F9211242F933F934F935F936F937F93E4
:100AC0008F939F93AF93BF93EF93FF931C990BC0AA
:100AD0008091080184FD03C006C00E946A041C9B2B
:100AE000FCCF109278011E992DC08091070186FFDE
:100AF00029C00E94FA0380911202909113021816E5
:100B00001906ECF04FC085B1826085B98FED95E193
:100B10000197F1F700C0000095B182E0892785B9FF
:100B20008FE295E70197F1F700C000008091120273
:100B300090911302019790931302809312021E9BCF
:100B4000E2CF30C01F992EC080910601882354F552
:100B50000E940F048091120290911302479704F1B2
:100B600021C085B1826085B98FE097E20197F1F7E6
:100B700000C0000095B182E0892785B99FE72DEE7E
:100B800080E0915020408040E1F700C0000080915B
:100B90001202909113020196909313028093120215
:100BA0001F9BDFCF83B18093080183B1809307013E
:100BB00083B180930601FF91EF91BF91AF919F9117
:100BC0008F917F916F915F914F913F912F910F90F6
:100BD0000FBE0F901F90189597FB072E16F40094E8
:100BE00007D077FD09D00E94000607FC05D03EF42F
:100BF000909581959F4F0895709561957F4F0895C9
:100C0000AA1BBB1B51E107C0AA1FBB1FA617B70732
:100C100010F0A61BB70B881F991F5A95A9F780954E
:100C20009095BC01CD0108950F931F93CF93DF934F
:100C30008230910510F482E090E0E0911802F0918A
:100C4000190220E030E0A0E0B0E0309719F14081D7
:100C500051810281138148175907C8F084179507FD
:100C600069F4109731F012960C93129713961C9317
:100C700027C0009318021093190222C021153105D4
:100C800019F04217530718F49A01BD01EF01DF0173
:100C9000F801DBCF21153105F9F0281B390B243081
:100CA000310580F48A819B816115710521F0FB017A
:100CB0009383828304C09093190280931802FE01EB
:100CC000329644C0FE01E20FF31F819391932250AC
:100CD0003109398328833AC02091160230911702D6
:100CE000232B41F42091020130910301309317022C
:100CF0002093160220910001309101012115310548
:100D000041F42DB73EB74091040150910501241BD9
:100D1000350BE0911602F0911702E217F307A0F4E9
:100D20002E1B3F0B2817390778F0AC014E5F5F4F41
:100D30002417350748F04E0F5F1F5093170240935A
:100D400016028193919302C0E0E0F0E0CF01DF91C1
:100D5000CF911F910F910895CF93DF93009709F4DE
:100D600081C0FC01329713821282A0911802B091C7
:100D70001902109781F420813181820F931F2091F5
:100D80001602309117022817390751F5F093170210
:100D9000E093160267C0ED0120E030E0CE17DF07D8
:100DA00040F44A815B819E0141155105F1F0EA0151
:100DB000F5CFD383C28340815181840F951FC8171B
:100DC000D90759F488819981840F951F02969183E0
:100DD00080838A819B81938382832115310529F445
:100DE000F0931902E09318023DC0E901FB83EA8306
:100DF00049915991C40FD51FEC17FD0761F480810B
:100E00009181840F951F0296E901998388838281DD
:100E100093819B838A83E0E0F0E012968D919C9110
:100E20001397009719F0FD01DC01F7CF8D919C918C
:100E300011979D012E5F3F4F820F931F2091160245
:100E4000309117022817390769F4309729F4109266
:100E500019021092180202C013821282B093170274
:0E0E6000A0931602DF91CF910895F894FFCF72
:100E6E0000001A022000010101010101510A802A2D
:100E7E000000000A510A000059551801111E111BDD
:100E8E00500B411B411F1101511F511B000000004F
:100E9E0000000000000000000000510F91394114C5
:100EAE009131411E410E411D500F80201015488674
:100EBE004014780570855115510E5195518E219023
:100ECE0081205015484450C528C0282009500000E4
:100EDE000000000000000000012020202020204CF7
:100EEE004F434B5049434B494E472047414D4520B8
:100EFE0050524553532043454E54455220544F2093
:100F0E005354415254202020202020202000202005
:100F1E00202050524553532055502D444F574E20AC
:100F2E00544F205049434B204C4F434B204C45448B
:100F3E002057494C4C205455524E204F4E20574866
:100F4E00454E20434F525245435420505245535321
:100F5E002043454E54455220544F2051554954205C
:100F6E002020202020202000000000000000000093
:020F7E00000071
:00000001FF
